:020000040800F2
:10000000E00700208901000823190008EF15000807
:100010002119000813030008ED1D0008000000006E
:100020000000000000000000000000002719000888
:100030001503000800000000251900082919000810
:10004000A3010008A3010008A3010008A301000800
:10005000A3010008A3010008A3010008A3010008F0
:10006000A3010008A3010008A3010008A3010008E0
:10007000A3010008A3010008A3010008A3010008D0
:10008000A3010008A3010008A3010008A3010008C0
:10009000A3010008A3010008A3010008A3010008B0
:1000A000A3010008A3010008A3010008A3010008A0
:1000B000A3010008A3010008A3010008A301000890
:1000C000A3010008A3010008A3010008A301000880
:1000D000A3010008E11D0008A3010008A301000816
:1000E000A3010008A3010008A301000800F002F822
:1000F00000F03AF80AA090E8000C82448344AAF188
:100100000107DA4501D100F02FF8AFF2090EBAE885
:100110000F0013F0010F18BFFB1A43F0010318473B
:10012000981F0000B81F0000103A24BF78C878C19B
:10013000FAD8520724BF30C830C144BF04680C60ED
:10014000704700000023002400250026103A28BF35
:1001500078C1FBD8520728BF30C148BF0B60704739
:100160001FB51FBD10B510BD00F099F81146FFF77F
:10017000F7FF01F0B3FE00F0B7F803B4FFF7F2FFAA
:1001800003BC00F0BFF80000094880470948004759
:10019000FEE7FEE7FEE7FEE7FEE7FEE7FEE7FEE737
:1001A000FEE7FEE704480549054A064B7047000094
:1001B00089190008ED000008E0010020E007002098
:1001C000E0030020E00300204FF0000200B51346DA
:1001D00094469646203922BFA0E80C50A0E80C5067
:1001E000B1F12001BFF4F7AF090728BFA0E80C5018
:1001F00048BF0CC05DF804EB890028BF40F8042B11
:1002000008BF704748BF20F8022B11F0804F18BF7D
:1002100000F8012B704700004FF0013C50F8042B10
:1002200051F8043B9A4221D1A2EB0C03934313EA09
:10023000CC1317D150F8042B51F8043B9A4215D136
:10024000A2EB0C03934313EACC130BD150F8042B0D
:1002500051F8043B9A4209D1A2EB0C03934313EAF1
:10026000CC13DBD04FF00000704700BFD01A01BAAA
:10027000B1FA81F101F0180122FA01F0CB40C1F18D
:100280002001DBB2C0B2C01A2CFA01F3D11A91439B
:1002900011EAC311E6D17047704770477047754641
:1002A00000F02CF8AE4605006946534620F00700E2
:1002B000854618B020B5FFF775FFBDE820404FF028
:1002C00000064FF000074FF000084FF0000B21F040
:1002D0000701AC46ACE8C009ACE8C009ACE8C0090D
:1002E000ACE8C0098D46704710B50446AFF30080F6
:1002F0002046BDE81040FFF740BF000000487047AF
:100300007C01002001491820ABBEFEE72600020058
:100310007047FEE7704710B590F8211000220229BF
:1003200005D00421816380F82020012010BD0168E0
:100330000B6823F00E030B6001680B6823F00103C8
:100340000B6090F84030C46B012101FA03F3636045
:1003500080F8211080F82020104610BD10B590F8CC
:1003600021100024022903D00421816301243DE0EF
:1003700001680A6822F00E020A6001680A6822F029
:1003800001020A601A4A0168914201D1012121E06B
:10039000174A1432914201D110211BE0144A28322D
:1003A000914201D1891515E0114A3C32914201D1A7
:1003B00089140FE00E4A5032914202D14FF480313D
:1003C00008E00B4A6432914202D14FF4801101E0FF
:1003D0004FF08071064A083A5160012180F82110DF
:1003E000002180F82010416B01B18847204610BDE4
:1003F000080002402DE9F84FDFF8B8910024A9F178
:10040000040B23460F2709F1040AABF1040EC9E0DF
:100410000125A5402A40AA427DD1674ED1F804C0EB
:10042000ACEB0608B44532D014DCBCF1030F3AD073
:1004300009DCBCF1000F2AD0BCF1010F1CD0BCF1CB
:10044000020F31D11DE0BCF1110F17D0BCF1120F1A
:100450002AD119E0B8F5881F19D006DCB8F5803F1D
:1004600015D0B8F5801F1FD111E0B8F5001F0ED0D0
:10047000B8F5041F18D10AE0CB6815E0CB681B1D46
:1004800012E0CB6808330FE0CB680C330CE08B68CC
:100490002BB1012B4FF0080303D0456104E0042386
:1004A00002E0056100E00023FF2A01D8064601E0D2
:1004B00000F104064FEA840501D9A5F12005D6F81C
:1004C000008007FA05FC28EA0C0803FA05F548EA5B
:1004D0000508C6F800804D68ED0062D5374DAE695D
:1004E00046F00106AE61AD6924F0030605F0010592
:1004F0000095334D06EB050CDCF80850A607360FC7
:1005000007FA06F825EA0805DFF8B880404503D168
:100510004FF0000817E044E0DFF8AC80404502D11E
:100520004FF001080FE0DFF8A480404502D14FF002
:10053000020808E0DFF89880404502D14FF0030838
:1005400001E04FF0040808FA06F848EA0508CCF87C
:1005500008804D68D9F80060ED024D4601D516437C
:1005600000E096432E604D68DAF80060AD02554613
:1005700001D5164300E096432E604D68DBF800601D
:10058000AD035D4601D5164300E096432E604D68ED
:10059000DEF80060ED03754601D5164300E0964392
:1005A0002E60641C0D682A46E5407FF431AFBDE83B
:1005B000F88F0000080401400000111000100240F4
:1005C0000000014000080140000C01400010014003
:1005D000001401408068084000D0012070470AB133
:1005E000016170470904FBE701488068704700001B
:1005F0001400002070B5040025D094F83D000025BB
:1006000020B984F83C50204600F0B8F8242084F843
:100610003D002068016821F0010101602068016847
:1006200041F4004101602068016821F4004101604B
:1006300000F00AFA4D4A6168914201D84C4900E045
:100640004C49884201D2012070BD4B492368B0FB60
:10065000F1F15E6826F03F060E435E6063689342E8
:1006600006D94FF4967359434FF47A73B1FBF3F103
:100670002368491C1E6A26F03F06314319626168EF
:10068000914210D84900401EB0FBF1F2521CC2F357
:100690000B02042A01D2042022E0B0FBF1F0401C3E
:1006A000C0F30B001CE0A268F2B301EBC10303EB43
:1006B0000116431EB3FBF6F35B1C43F480431B059A
:1006C00049D092B301EBC10202EB0111401EB0FB15
:1006D000F1F0401CC0F30B0040F4804040F40040B7
:1006E0002168CA694CF6FF739A431043C861D4E984
:1006F000071001432068026822F0C0021143016024
:10070000D4E9030101432068826848F2FF339A4329
:1007100011438160D4E9050108432168CA6822F0C9
:10072000FF021043C86001E00EE016E02068016897
:1007300041F0010101602564202084F83D0025631B
:1007400084F83E50002070BD01EB4106431EB3FB10
:10075000F6F35B1CB3E70120C2E701EB4101401E49
:10076000B0FBF1F0401CC0F30B00B7E7A08601001E
:1007700080841E0000093D0040420F0010B586B085
:100780000021009101910291039100681349884270
:1007900022D1134CA06940F00800A061A06969460D
:1007A00000F0080004904FF4407000901220019077
:1007B000032003900B48FFF71DFE0B48416841F0F2
:1007C000E06141F002014160E06940F40010E06145
:1007D000E06900F40010049006B010BD0054004021
:1007E00000100240000C01400000014002488168F6
:1007F000027811448160704714000020074810B54A
:10080000016841F010010160032000F075F80F202D
:1008100000F006F800F024F8002010BD002002408F
:1008200070B50D4D04464FF47A712878B1FBF0F0A5
:100830000A490968B1FBF0F000F0DCFA48B9102C65
:1008400007D200222146501E00F036F800206C60CE
:1008500070BD012070BD00001400002020000020A9
:100860000C4808B5816941F001018161816901F09D
:1008700001010091C16941F08051C161C06900F07E
:10088000805000900448416821F0E06141F000711F
:10089000416008BD0010024000000140002809DB53
:1008A00000F01F02012191404009800000F1E0208A
:1008B000C0F8001170470000F0B40E4B1B680C46E6
:1008C000C3F30223C3F10705042D00D90425191D24
:1008D000072901D2002300E0DB1E012606FA05F1FC
:1008E000491E214099409E40761E16403143F0BC7F
:1008F00001F07DBA0CED00E0064900F0070208683F
:100900004FF6FF03184040EA0220034A10430860F4
:10091000704700000CED00E00000FA052DE9F047FB
:100920000F46050061D0434E306800F00700B84222
:1009300009D2306820F0070038433060306800F09A
:100940000700B84251D128683B4C810712D54007B7
:1009500003D5606840F4E06060602878000703D544
:10096000606840F4605060606068A96820F0F00042
:10097000084360602878C00728D06868012810D034
:100980002168022810D0890700292EDA616821F039
:10099000030101436160FFF727FE804641F2883979
:1009A0000DE021688903EFE78901EDE7FFF71CFE01
:1009B000A0EB0801494502D90320BDE8F087606833
:1009C000696800F00C00B0EB810FEFD1306800F0E7
:1009D0000700B8420BD9306820F007003843306078
:1009E000306800F00700B84201D00120E5E7287820
:1009F000400705D56068E96820F4E060084360605E
:100A00002878000706D56068296920F4605040EA1C
:100A1000C100606000F038F86168084AC1F3031152
:100A2000515CC8400649086006480068FFF7F8FEB8
:100A30000020C2E700200240001002408E20000883
:100A4000200000201800002004480549006849687B
:100A5000044AC1F30221515CC840704720000020C5
:100A6000001002409E2000080448054900684968BB
:100A7000044AC1F3C221515CC840704720000020E5
:100A8000001002409E2000080E4A51680E4801F0F6
:100A90000C03042B11D0082B0FD10C48C1F3834356
:100AA000C903C05C0AD55168084AC1F34041921E8F
:100AB000515C054A5043B0FBF1F07047044948438C
:100AC000704700000010024000127A007E200008EB
:100AD00000093D002DE9F84F040070D02078C04D8A
:100AE000C00749D06868C0F38100012807D0686852
:100AF000C0F38100022809D16868C00306D52868C0
:100B0000800339D560680028E7D035E06068B0F52B
:100B1000803F0BD010B1B0F5A02F11D0286820F481
:100B200080302860286820F4802002E0286840F4A3
:100B300080302860606890B1FFF756FD06460AE0F5
:100B4000286840F480202860F0E700BFFFF74CFDE4
:100B5000801B642873D828688003F7D50CE0FFF762
:100B600043FD064605E000BFFFF73EFD801B6428FD
:100B7000F0D828688003F7D420789A4E80074FF089
:100B800001094FF0000839D5686810F00C0F07D044
:100B90006868C0F38100022809D16868C00306D4E0
:100BA0002868800714D52069012808D110E0206941
:100BB000B0B1C6F80090FFF717FD074605E00AE15F
:100BC000FFF712FDC01B0228C4D828688007F7D59C
:100BD0002868616920F0F80040EAC10028600DE053
:100BE000C6F80080FFF700FD074604E0FFF7FCFCB5
:100BF000C01B022823D828688007F7D42078000774
:100C00002CD57948A169D9B1C0F80090FFF7ECFC68
:100C1000074604E0FFF7E8FCC01B02280FD8686A0B
:100C20008007F7D571484FF4FA510068B0FBF1F036
:100C3000009000BF0098411E0091FAD20EE080E0C3
:100C4000C0F80080FFF7D0FC074604E0FFF7CCFCBB
:100C5000C01B022875D8686A8007F7D4207840073F
:100C600060D5E8690027C00008D4E86940F08050EA
:100C7000E861E869012700F0805000905C48016855
:100C8000C90513D40168834641F480710160FFF700
:100C9000ABFC824606E000BFFFF7A6FCA0EB0A0013
:100CA00064284ED8DBF80000C005F5D5E0680128BF
:100CB0000AD008B1052813D0286A20F00100286264
:100CC000286A20F0040002E0286A40F0010028624F
:100CD000E06841F2883B98B1FFF786FC82460BE062
:100CE000286A40F004002862EEE700BFFFF77CFCB2
:100CF000A0EB0A0159455AD8286A8007F6D50CE0BE
:100D0000FFF772FC824605E0FFF76EFCA0EB0A01DC
:100D100059454CD8286A8007F6D41FB1E86920F0FD
:100D20008050E861E06988B36968C1F381010229F4
:100D300044D00228C6F8608004D0FFF755FC044672
:100D400038E034E0FFF750FC074604E0FFF74CFCC6
:100D5000C01B02282BD828688001F7D4206AB0F580
:100D6000803F05D16868A16820F4003008436860BE
:100D7000D4E908010843696821F4741108436860E4
:100D8000C6F86090FFF730FC044606E025E000BF9F
:100D9000FFF72AFC001B022809D828688001F7D534
:100DA0001BE000BFFFF720FC001B022802D9032034
:100DB000BDE8F88F28688001F4D40EE00128F7D050
:100DC0006868226A00F48031914204D1616A00F4BB
:100DD0007010884201D00120EAE70020E8E7000017
:100DE00000100240000042428004424220000020E5
:100DF0000070004010B5401EB0F1807F01D301208B
:100E000010BD4FF0E02460610F21601700F0EFFF8C
:100E10000020A06107202061002010BD10B590F8CF
:100E20003C20012A22D0012280F83C20CA688C682C
:100E300022F4407222434C6822F4806222430C6800
:100E400022F4006222430C6922F4805222434C694E
:100E500022F400522243C969002322F480420A434B
:100E600001684A6480F83C30002010BD022010BDAB
:100E700070B590F83C20012A26D0012480F83C402F
:100E8000022280F83D2003685A689D6822F07006AF
:100E90000A6832435A600D4B02689A4208D0B2F198
:100EA000804F05D00A4B9A4202D00A4B9A4204D195
:100EB000496825F080031943916080F83D40002186
:100EC00080F83C10084670BD022070BD002C014027
:100ED000000400400008004010B5040003D094F85E
:100EE0003D0010B107E0012010BD002084F83C0057
:100EF000204600F01FF8022084F83D00211D2068E4
:100F000000F044FD012084F8460084F83E0084F897
:100F10003F0084F8400084F8410084F8420084F8DF
:100F2000430084F8440084F8450084F83D00002024
:100F300010BD000008B500680649884208D106487F
:100F4000816941F400618161806900F40060009072
:100F500008BD0000002C01400010024070B504469E
:100F600090F83C000025012817D0012684F83C6049
:100F7000022084F83D002068826822F0770222F483
:100F80007F4282600868502838D00DDC20284FD07E
:100F900005DC90B3102811D14AE0022070BD302842
:100FA00046D040280AD13BE060282FD070280DD0D1
:100FB000B0F5805F03D0B0F5005F12D0012584F852
:100FC0003D60002084F83C00284670BDCB68D1E924
:100FD0000121206800F023FD2068816841F077013D
:100FE00009E0CB68D1E90121206800F018FD2068F4
:100FF000816841F480418160E1E719E0CA6849688D
:10100000206800F0C1FD5021206806E0CA684968E8
:10101000206800F0CAFD6021206800F00AFDCEE7DC
:10102000CA684968206800F0AFFD40212068F4E7F5
:10103000226801461046F0E700B585B00021009116
:1010400001910291039100680B49884212D10B482B
:10105000816941F0040181618069694600F0040002
:1010600004904FF4407000900220019003900448D7
:10107000FFF7C0F905B000BD002C01400010024090
:101080000008014070B5044690F83C0000260D466B
:1010900001280FD0012084F83C006AB1042A1DD039
:1010A000082A2FD00C2A3FD00126002084F83C00CB
:1010B000304670BD022070BD206800F0C3FC20687F
:1010C000816941F0080181612068816921F0040192
:1010D0008161206881692A69114311E0206800F06C
:1010E000D9FC2068816941F40061816120688169CF
:1010F00021F480618161206881692A6941EA0221C5
:101100008161D2E7206800F0F1FC2068C16941F0FC
:101110000801C1612068C16921F00401C161206832
:10112000C1692A69114311E0206800F00BFD2068B5
:10113000C16941F40061C1612068C16921F4806125
:10114000C1612068C1692A6941EA0221C161ACE735
:1011500010B5040003D094F83D0010B107E0012061
:1011600010BD002084F83C00204600F01EF802204C
:1011700084F83D00211D206800F008FC012084F85F
:10118000460084F83E0084F83F0084F8400084F86C
:10119000410084F8420084F8430084F8440084F855
:1011A000450084F83D00002010BD704710B504468E
:1011B000022249B104290ED0082913D094F8410025
:1011C000012816D0012010BD94F83E000128F9D165
:1011D00084F83E200FE094F83F000128F2D184F813
:1011E0003F2008E094F840000128EBD184F840202B
:1011F00001E084F841200122206800F003FC0F493F
:101200002068884203D1426C42F400424264206864
:10121000884208D0B0F1804F05D00949884202D0F9
:101220000849884204D1816801F00701062903D0EA
:10123000016841F001010160002010BD002C014057
:10124000000400400008004070477047F8B501688E
:1012500004460868CA684B6910F00F0F4FF000058C
:1012600059D003F0010602F49077374365D0C107E7
:1012700005D0D10503D5616C41F0010161644107DE
:1012800005D5D90703D0616C41F002016164810783
:1012900005D5D90703D0616C41F0040161640107F1
:1012A00007D502F02001314303D0616C41F0080101
:1012B0006164616C00293AD0800604D5900602D59D
:1012C000204600F0B3FC20684069616CC0F38010D8
:1012D000090700D460B3204600F081FC2068406913
:1012E000400621D52068143050E8001F21F040014D
:1012F00040E80012002AF5D1E06BA8B16D494163C6
:10130000E06BFFF72BF8002811D0E06B416B01B0C8
:10131000BDE8F040084783060FD593060DD520465B
:10132000BDE8F84000F082BC2046FFF78EFFF8BD14
:101330002046FFF78AFF6564F8BD266B2023012E47
:101340007CD1C6067AD5D60678D50868486800905C
:1013500048694FF00206400640D5E16B08684068D6
:101360000004000CE8D0A28D8242E5D9E0858869AE
:1013700020282DD020680C3050E8001F21F4807107
:1013800040E80012002AF5D12068143050E8001F10
:1013900021F0010140E80012002AF5D12068143044
:1013A00050E8001F21F0400140E80012002AF5D16A
:1013B00084F84230256320680C3050E8001F21F08B
:1013C000100140E80012002AF5D1E06BFEF7A3FF00
:1013D0006663A08DE18D401A81B22AE0A08DE18D77
:1013E000401A81B2E08D0028A6D00029A4D022683E
:1013F0000C3252E8000F20F4907042E80007002FF2
:10140000F5D12068143050E8002F22F0010240E8A6
:101410000027002FF5D184F84230256320680C3076
:1014200050E8002F22F0100240E80023002BF5D1F5
:1014300066632046FFF708FFF8BDFFE705062BD5DA
:10144000150629D594F841002128F5D1A068B0F5FA
:10145000805F01D12069B0B1206A411C21622168FE
:1014600000784860E08C401E0004000CE084E3D16A
:101470002068C16821F08001C1602068C16841F026
:101480004001C160D8E7206A0088C0F308004860C6
:10149000206A801C2062E5E74006CDD55006CBD5FA
:1014A000CA68204622F04002CA6084F8413000F049
:1014B0009DF8C1E7CF1B000870B5040004D094F874
:1014C0004100002510B106E0012070BD84F84050B5
:1014D000204600F023F8242084F841002068C168E9
:1014E00021F40051C160204600F002FC206801692F
:1014F00021F4904101612068416921F02A01416194
:101500002068C16841F40051C1606564202084F8FE
:10151000410084F842006563002070BD30B585B09D
:101520000024009401940294039400681B498842AB
:1015300032D11B48816941F480418161816901F4A4
:1015400080410491816941F0080181618069154DF4
:1015500000F0080004904020009002200190032039
:10156000039069462846FEF745FF8020CDE9000438
:10157000694628460294FEF73DFF0B48416841F05A
:10158000E06141F004014160002201212520FFF7C4
:1015900093F92520FFF782F905B030BD00380140EE
:1015A00000100240000C01400000014090F8423061
:1015B000202B01D00220704721B11AB10023036310
:1015C00000F0F2BB012070470649006809688842B4
:1015D00007D10549012002464870091D0148FFF75F
:1015E000E5BF704700010020000000207047FEE7C3
:1015F0002DE9F041104E002506F1180700F02CF8F7
:10160000284600F01DF8002436F8141057F824007E
:10161000FEF7E0FF50B1641CE4B2042CF4D36D1C5F
:10162000EDB2042DEAD30020BDE8F081034800EBC1
:101630008500005DF8E700003C000020A6200008BF
:101640000449044A103231F8101052F820000022E8
:10165000FEF7C5BF3400002070B5084D002405F129
:10166000100600BF35F8141056F824000122FEF7CA
:10167000B6FF641CE4B2042CF4D370BD3400002027
:101680007047000070B5194C217800290FD001294E
:101690000DD002290BD1A0F13001154D092907D831
:1016A000297A082903D26854287A401C287270BD10
:1016B0004428FCD10D490E480C31FEF7ADFD002148
:1016C00058B1E078401CC0B2E070032807D2084847
:1016D000643841668166297270BD217070BDFEF765
:1016E00083FFA0600320207070BD00000000002078
:1016F00048010020442802D10149022008707047A7
:10170000000000207047000070B5FFF771FF224C09
:1017100005460126E078854204D02670FEF764FF76
:10172000A060E5702078002540B1FEF75DFFA1685C
:10173000401A0F2802D3E078607025706078A17895
:10174000884218D038B12671FEF74EFFE06060780D
:10175000FFF798FF0DE02571FEF746FFE168401A9C
:10176000B0F57A7F02D8A078FFF78AFFA078FFF75C
:10177000C9FF6078A070207900280BD0FEF734FFF5
:10178000E168401A40F6B831884203D36078FFF729
:10179000B1FF257170BD000024000020FFF75CBF81
:1017A0002DE9F04385B0002424480094019402946C
:1017B0000394816941F020018161816901F0200178
:1017C0000491816941F004018161816901F00401A2
:1017D0000491816941F0080181618069DFF86080CE
:1017E00000F00800049000220F214046FEF7F7FEAB
:1017F000DFF850904FF44047002239464846FEF744
:10180000EEFE0F2001250226CDE90005CDE90246B6
:1018100069464046FEF7EEFDF0208DE8310069464E
:101820004046FEF7E7FD00970396CDE9015469466F
:101830004846FEF7DFFD05B0BDE8F083001002402A
:1018400000080140000C014010B596B000240F9430
:1018500010941194129413941C2168461494FEF76A
:10186000B3FC202107A8FEF7AFFC2C482A49C0E9A9
:10187000001440F2E731C0E902410461446184612F
:10188000FFF72AFB08B172B6FEE74FF480500F90C5
:101890000FA92248FFF762FB08B172B6FEE71F48A6
:1018A000FFF756FC08B172B6FEE7139413A91B4864
:1018B0001494FFF7DDFA08B172B6FEE76020CDE9B7
:1018C000000402940394049405940022694613488A
:1018D0000694FFF7D7FB08B172B6FEE7042269460B
:1018E0000E48FFF7CFFB08B172B6FEE707940894E5
:1018F00009944FF400500A94CDE90B4007A907481A
:101900000E94FFF78BFA08B172B6FEE70348FFF7B3
:1019100093FB16B010BD0000002C0140B800002061
:10192000FEE7FEE770477047FEF760BF30B58FB047
:1019300028216846FEF748FC14210AA8FEF744FC5B
:1019400002250120049000951020059000244FF4FA
:101950006010CDE9084007956846FFF7BBF808B16D
:1019600072B6FEE70F20CDE90A054FF48060CDE99D
:101970000C4002210AA80E94FEF7D0FF002801D0E7
:1019800072B6FEE70FB030BD70470000F0B50268D8
:10199000194B1A4C1A4D4FF08047984205D0B84267
:1019A00003D0A04201D0A84203D122F070064A68B9
:1019B0003243984205D0B84203D0A04201D0A84299
:1019C00003D122F44074CA6822434C6922F0800299
:1019D000224302608A68C2620A688262984201D128
:1019E00009690163012141610169C90703D00169E6
:1019F00021F001010161F0BD002C01400004004014
:101A00000008004010B501F01F030121046A99404D
:101A10008C430462016A9A401143016210BD10B503
:101A2000846842EA032224F47F440A43224382600A
:101A300010BD826822F070020A4342F00701816003
:101A40007047000030B5036A026A22F001020262A8
:101A50004268846924F073050C682C4323F0020566
:101A60008B682B430A4DA8420BD123F00805CB68A5
:101A700022F440722B434D6923F0040315438A6915
:101A80002A434260846149684163036230BD0000BB
:101A9000002C014030B5026A036A23F01003036290
:101AA000436884690D6824F4E64444EA05248D689B
:101AB00022F0200242EA05120B4DA8420ED1CD6859
:101AC00022F0800242EA05124D6923F4406343EAA2
:101AD00085038D6922F0400243EA850343608461F7
:101AE00049688163026230BD002C014030B5036A51
:101AF000026A22F4807202624268C46923F40073AD
:101B000024F073050C682C438D6843EA05230C4DC3
:101B1000A8420ED1CD6823F4006343EA05234D6942
:101B200022F4405242EA05128D6923F4806342EAAE
:101B300005124260C4614968C163036230BD0000A0
:101B4000002C014030B5046A026A22F4805202621D
:101B50004268C3690D6823F4E64343EA05238D68B0
:101B600024F4005444EA0534064DA84204D14D69DA
:101B700022F4804242EA85124260C36149680164EE
:101B8000046230BD002C014010B5036A046A24F0E1
:101B900001040462846924F0F00444EA021423F08E
:101BA0000A020A438461026210BD10B5036A046A26
:101BB00024F010040462846923F0A00324F4704428
:101BC00044EA023243EA01118261016210BD10B59C
:101BD000406A0021C185C184FFF737FB10BD016851
:101BE0000C3151E8002F22F4907241E80023002BC1
:101BF000F5D10168143151E8002F22F0010241E8CB
:101C00000023002BF5D1016B012909D101680C31AA
:101C100051E8002F22F0100241E80023002BF5D1FB
:101C2000202180F8421000210163704708B590F828
:101C30004210222901D0022008BD82684FF480534F
:101C40009A4201D1016921B1816A9A421BD04AB1FD
:101C50000AE00268816A5268C2F308020A80816A57
:101C6000891C08E0026972B10268526802F07F02C2
:101C70000A70816A491C8162C18D491E0904090CE0
:101C8000C18503D01BE002685268F1E70168CA68A9
:101C900022F02002CA600168CA6822F48072CA6019
:101CA00001684A6922F001024A61202180F842104D
:101CB00000214163026B012A03D0FFF785FC00205D
:101CC00008BD016301680C3151E8002F22F01002B9
:101CD00041E80023002BF5D101680A68D20602D53D
:101CE0000A6849680091818DFFF7AEFAE7E70000C6
:101CF00070B5044600680169E26821F4405111435F
:101D000001612169A0680843616908432168CA68C4
:101D100041F20C639A430243CA6020684169A26998
:101D200021F44071114341611E492068884202D16B
:101D3000FEF79AFE01E0FEF787FE00EBC00101EB23
:101D40000012606864218000B2FBF0F3B3FBF1F392
:101D50006FF018067343B2FBF0F5B2FBF0F605EB3B
:101D60008305322303EB0515B5FBF1F5B6FBF1F660
:101D700005F0F00505EB0615B2FBF0F6B2FBF0F04E
:101D8000B0FBF1F06FF01802504306EB800003EB5C
:101D90000010B0FBF1F0216800F00F0028448860CB
:101DA00070BD00000038014081628285C28500213B
:101DB0004164222180F84210016921B10168CA689A
:101DC00042F48072CA6001684A6942F001024A61C5
:101DD0000068C16841F02001C16000207047000028
:101DE0000148FFF733BA000000010020FEE70907B1
:101DF000090E002804DB00F1E02080F80014704791
:101E000000F00F0000F1E02080F8141D7047000082
:101E100010B50C46052827D2DFE800F003060911AB
:101E200019000022114614E02246012109E0224651
:101E300002210E4800F0A2F8224602210EE0002204
:101E400011460A4800F09AF82246012106E022468F
:101E50000121064800F092F8002211460348BDE82F
:101E60001040143000F08AB810BD0000540100206A
:101E700038B5044600200C4D009023464FF48042B4
:101E800029460A4800F0A1F80420420300900748C0
:101E900023462946143000F098F8BDE83840002168
:101EA0000846FFF7B5BF0000000C014054010020B8
:101EB00010B5094C207800280DD001280BD003283C
:101EC00009D1FEF791FBA168401A47F230518842D0
:101ED00001D30120207010BD00000020FEF78EFC11
:101EE000FFF724FDFFF75CFCFFF7AEFC1F481E491F
:101EF000002401604FF4E131C0E901140C21C460F9
:101F0000C0E904418461C461FFF7D6FA08B172B632
:101F1000FEE7164816499C3801601649C0E90114CD
:101F20004FF48041C0E9034144618461C4610462AB
:101F3000FEF760FB08B172B6FEE70C484838FFF7C1
:101F400097FF32210120FFF763FF01220A4907486A
:101F5000FFF72CFBFFF722FC00F058F8FFF7D4FB4B
:101F6000FFF7A6FFF8E7000000380140000100205D
:101F700000540040A08601000400002070B5154602
:101F8000044689B1012916D002291DD1A188012258
:101F90002068FEF724FBC5F16400C2B2D4E9020157
:101FA000BDE8704000F01CB8A18800222068FEF750
:101FB00016FB0022F2E7A18800222068FEF70FFB43
:101FC000D4E902012A46EBE770BD30B4029C0160FF
:101FD0008280C0E90234214630BC1846FFF7E6B8DB
:101FE0000068C36A53436422B3FBF2F292B239B180
:101FF000042907D0082907D00C2900D102647047B2
:102000004263704782637047C263704710B51A4CD1
:10201000207800282ED1607800282BD020794C28F9
:102020001CD004DC422816D0462804D10EE05228E9
:1020300017D0532807D0A0F13001092914D801EB9B
:102040008100400013E00021084601E0A178012052
:10205000FFF7DEFE0CE0A1780220F9E7A17803206B
:10206000F6E7A1780420F3E7712801D16420A0707D
:102070000020607010BD000000000020010202037B
:102080000405060708090A0B0C0D0E0F10100000BE
:102090000000000000000102030406070809000018
:1020A00000000102030431323341343536423738FF
:1020B00039432A3023440000D820000800000020C3
:1020C00064000000280100083C2100086400002092
:1020D0007C070000440100080100640000000000CB
:1020E0000000000030313233343536370100000053
:1020F000100000000000000000127A000000000044
:1021000000000000000000000000000001000200CC
:10211000040008001000200040008000000801407A
:10212000000801400008014000080140000801408B
:0C213000000801400008014000080140C8
:04000005080000ED02
:00000001FF
